:100000000C943E000C945B000C942F020C945B004B
:100010000C945B000C945B000C945B000C945B00F4
:100020000C945B000C945B000C945B000C945B00E4
:100030000C945B000C945B000C945B000C945B00D4
:100040000C945B000C945B000C945B000C945B00C4
:100050000C94C9020C949D020C9419030C94ED02AB
:100060000C945B000C945B000C945B000C945B00A4
:100070000C945B000C945B000C945B0011241FBE7D
:10008000CFEFCDBFDFE3DEBF18E3A0E0B8E3E5E9E3
:10009000FFE002C005900D92A832B107D9F728E31E
:1000A000A8E2B8E301C01D92A838B207E1F70E94A8
:1000B0001E010C94BD070C940000FC0164BF40833A
:1000C0000895FC01E60FF71F20819181892F90E0B0
:1000D000982F8827820F911D0895CF93DF93CDB776
:1000E000DEB76497CDBFDEBF92E099831A8281E0CC
:1000F0008B838EEE8C8385E08D8380E98E838AE30B
:100100008F8388EB888783E089871A868B872BE823
:100110002C878D871E8687E08F8787E9888B998B50
:100120001A8A1B8A89EE8C8B44E050E0BE016F5F17
:100130007F4F8AE00E94CD0144E050E0BE016B5F3A
:100140007F4F8AE00E94CD0144E050E0BE01675F2E
:100150007F4F8AE00E94CD0144E050E0BE01635F22
:100160007F4F8AE00E94CD0144E050E0BE016F5E07
:100170007F4F8AE00E94CD016496CDBFDEBFDF9144
:10018000CF910895CF92DF92EF92FF920F931F933A
:10019000CF93DF93E5E5F8E383E1DF011D928A95D4
:1001A000E9F723E130E0AF016CE48AE00E94F0015E
:1001B00070E060E085E598E30E946100BC01990F62
:1001C000880B990B0E94310720E030E040E251E4B7
:1001D0000E9487066B017C01C0925138D092523840
:1001E000E0925338F092543808E618E3C2E0D0E0C9
:1001F000BE0185E598E30E946100BC01990F880B60
:10020000990B0E94310720E030E040EA50E40E9460
:100210008706F80161937193819391938F012296E0
:10022000C231D10529F7C701B601DF91CF911F91E6
:100230000F91FF90EF90DF90CF900895CF93DF93D1
:10024000CDB7DEB7E197CDBFDEBF0E94740284E672
:1002500090E00E94AF010E946D0080E00E94AF0319
:100260000F2EF6E0CF2EF4E0DF2EF02D10E1D601B8
:100270001C93FE0133968EE0DF011D928A95E9F70B
:1002800082E0898380E38A8360E170E0CE01019699
:100290000E94BA030F2EF5E0EF2EF4E0FF2EF02DB2
:1002A000F701108384E690E00E94AF01D6011C9311
:1002B00085E0EEE7FFE8DE01519601900D928A9508
:1002C000E1F765E070E0CE0141960E94BA03F701C4
:1002D000108384EF91E00E94AF0100E112E00F2E45
:1002E000F0E34F2EF02D0F2EFBE05F2EF02D0F2EA2
:1002F000FAEA6F2EF02D6894772476F80E94C200F7
:100300004B015C01D6010C9382E1E3E8FFE8DE01DA
:10031000569601900D928A95E1F762E170E0CE0168
:1003200046960E94BA0318A749A65AA66BA67CA6B1
:100330001DA61EA61FA7C501B4010E94F90678AB31
:100340006F7069AB62E170E0CE0188960E94BA03DB
:10035000F701008384E690E00E94AF01CFCF9C01BB
:1003600021503109892B49F083EC99E00197F1F78D
:1003700000C0000021503109B8F70895FC016081E8
:100380007181828193810E943A0470E060E090E084
:1003900080E00E94200482E00895EF92FF920F9384
:1003A0001F93CF93C82F8B017A018C2F0E94A70433
:1003B0008823D9F3B701C8010E943A0470E060E0D5
:1003C00085E896E00E9426040E949C050E945D0438
:1003D0008130E1F3CF911F910F91FF90EF9008953D
:1003E0001F93CF93DF93CDB7DEB72597CDBFDEBF89
:1003F000182F6D834B835C8329833A83812F0E945E
:10040000A7048823D9F3BE016F5F7F4F8EEB91E085
:100410000E94200461E070E0CE0105960E943A043B
:1004200070E060E085E896E00E9426040E949C054A
:100430000E945D048130E1F32596CDBFDEBFDF91E0
:10044000CF911F91089540E068ED80E890E00E9410
:100450005D00E0E8F0E01186108680E008951F92CC
:100460000F920FB60F9211248F9381E080938A0030
:100470008F910F900FBE0F901F90189540E068ED80
:1004800088E790E00E945D0040E068ED8CE790E036
:100490000E945D0040E068ED80E790E00E945D0012
:1004A00041E068ED81E690E00E945D0040E868ED83
:1004B00080E690E00E945D0040E068ED82E690E01A
:1004C0000E945D0080E0089540E068ED80E590E0E6
:1004D0000E945D0080E0089540E068ED80E091E0DA
:1004E0000E945D0080E008950E9450030E94230254
:1004F0000E946C020E943E020E9464020E942C0430
:100500000E9495030E94D8020E9489020E9428033B
:100510000895E0E0F6E0168A1182128213821482B6
:10052000148611861286168281E08583148A158AC4
:10053000128A138A808380E008951F920F920FB66B
:100540000F9211242F933F934F935F936F937F9359
:100550008F939F93AF93BF93EF93FF93E0912838CE
:10056000F0912938309709F0099582E080930B06C5
:10057000FF91EF91BF91AF919F918F917F916F917B
:100580005F914F913F912F910F900FBE0F901F9051
:1005900018951F920F920FB60F9211248F9381E03E
:1005A00080930B068F910F900FBE0F901F901895A0
:1005B000E0E4F6E0168A118280E1828313821482DD
:1005C000148611861286168281E08583148A158A24
:1005D000128A138A808380E008951F920F920FB6CB
:1005E0000F9211242F933F934F935F936F937F93B9
:1005F0008F939F93AF93BF93EF93FF93E0912A382C
:10060000F0912B38309709F0099582E080934B06E2
:10061000FF91EF91BF91AF919F918F917F916F91DA
:100620005F914F913F912F910F900FBE0F901F90B0
:1006300018951F920F920FB60F9211248F9381E09D
:1006400080934B068F910F900FBE0F901F901895BF
:1006500040E068ED80E191E00E945D00E0E1F1E0C2
:100660001282138280E00895E0E1F4E080818860E6
:100670008193E83184E0F807C9F7E0E3F4E0808192
:1006800088608193E83384E0F807C9F7E0E5F4E097
:10069000808188608193E83584E0F807C9F7089580
:1006A000CF93DF930E943403C0E0D4E08AE18883D3
:1006B000A0E2B4E01C92E0E4F4E088E080831C82D5
:1006C00084E014968C9314971482188A198A1A8AD3
:1006D0001B8A8C8B8D8B1E8A8F8B50961C92509709
:1006E00051961C92519752961C92529753961C9277
:1006F000539754961C92549755961C92559756961C
:100700001C92569757961C92808B118A128A138AD4
:10071000148A158A168A178AE0E0F2E010821182A4
:1007200012821382DF91CF910895E0E2F8E083E234
:1007300080831182128210922C38138280E00895F7
:1007400020912C38211109C021E020932C38E0E2BF
:10075000F8E08083918381E0089580E00895E82F98
:10076000F0E0EE0FFF1FE050F84C808191810E9475
:10077000A00308956115710571F0DC01680F791F00
:10078000E0E2F8E09D91948393819923ECF78481D2
:10079000A617B707B9F70895E0E5F8E380818D7FE4
:1007A000808310924F3880E0089581E0089585E0BD
:1007B00008956115710581F090E0FC01EE0FFF1FB7
:1007C000E35DF74C60837183880F991FFC01E75C40
:1007D000F74C40835183089590E0FC01EE0FFF1F1A
:1007E000E35DF74C25ED33E020833183880F991FBB
:1007F000FC01E75CF74C108211820895E0E5F8E314
:1008000080818160808380914938880F81608093E6
:10081000170884E008950E94FE0308950E94FE03D5
:100820000895E0E5F8E38081816080838091493814
:10083000880F8093170883E008950E94110408959B
:10084000AB01BC0180E00E94D9030895AB01BC015B
:1008500082E00E94D9030895E0E1F8E0108212825C
:100860008DE2868381E0838315821782148210864D
:1008700080E008959C019091503893FF0BC0EDE209
:10088000F8E3258F368F678F70A3E0E5F8E3892FB3
:10089000877F80830895E0E1F8E083818F7383830D
:1008A0000895E0E1F8E08581806C8583089580916A
:1008B000150882FB882780F90895CF93DF930E9463
:1008C0005704882341F0E0E5F8E380818D7F808341
:1008D00082E080934F388091503881FF04C081E0DE
:1008E000DF91CF910895E0E5F8E38B7F8083CDE23F
:1008F000D8E38FEF8C8F0E9451040E944B048AA191
:10090000EFCF8091150883FB882780F90895E0E1F7
:10091000F8E084818860848385818160858308957F
:100920000E948704E0E5F8E380818D7F808382E088
:1009300080934F388EE008950E948704E0E5F8E345
:1009400080818D7F808310924F388EE00895909142
:10095000503892FF02C081E00895EDE2F8E3848F01
:10096000A0E5B8E3892F887F9EE091A324EF31E0D2
:10097000228F338F846088608C9385ED93E0808331
:1009800091831486158682839383168617868483C3
:100990009583108A118A86839783128A138A87ED3A
:1009A00093E080879187148A158A0E9487040E94A9
:1009B000510480E00895E0E1F8E08481826084835E
:1009C0000895E0E1F8E085818860858308950E94BC
:1009D000E104ADE2B8E382E092968C93929712968E
:1009E000ED91FC9113971E968D919C910995823003
:1009F00029F0833031F00E949C0408950E94FE0388
:100A000008950E9411040895E0E1F8E085818823AB
:100A10001CF0858186FFFACF0895E0E1F8E084813B
:100A20008360848308950E940D05E0E5F8E38081EA
:100A30008D7F808310924F3880E00895E0E5F8E3E1
:100A400080818E7F8083ADE2B8E382E092968C93C2
:100A500092971496ED91FC91159750968D919C91DB
:100A60000995823029F0833031F00E9413050895F2
:100A70000E94FE0308950E941104089580911508B4
:100A8000829581700895CF93DF930E9451048091E5
:100A9000503880FD1EC00E948104882319F080E137
:100AA00080934E380E945704882319F081E1809387
:100AB0004E38CDE2D8E3E9A1F0E0EE0FFF1FEC5F86
:100AC000F74C0190F081E02D099589A3DF91CF913A
:100AD00008950E943E058823F1F28FE080934E38FE
:100AE000DACFCF93DF938091503881FF09C0C0E502
:100AF000D8E30E9404050E944305888181FDF9CF57
:100B0000DF91CF9108959091503891FD13C0E0E5A9
:100B1000F8E392609083882349F081E080934E3817
:100B20000E9443050E94710580E0089582E0809351
:100B30004E38F6CF81E0089580E00E948305089545
:100B40000E943E058823B9F0ADE2B8E31696ED9118
:100B5000FC91179752968D919C910995823029F0BE
:100B6000833031F00E94130508950E94FE0308951A
:100B70000E9411040895E0E5F8E380818E7F808370
:100B8000EDE2F8E3A58DB68DCD010196858F968FA8
:100B90008C9180931808878D90A10197878F90A3DF
:100BA000892B11F485E0089583E008950E943E05A5
:100BB0008823B9F0ADE2B8E31696ED91FC91179752
:100BC00052968D919C910995823029F0833031F0B5
:100BD0000E94130508950E94FE0308950E941104C7
:100BE0000895E0E5F8E3808188608083ADE2B8E3B2
:100BF000ED91FC9111971C968D919C9109958330F4
:100C000051F0843059F0823019F00E941305089594
:100C10000E94FE0308950E94110408950E94A005F9
:100C20000895E0E1F8E084818B7F848308950E9439
:100C3000110683E008950E94110684E00895E0E122
:100C4000F8E084818460848308950E941F0688E010
:100C500008950E941F060E940D05E0E5F8E38081DB
:100C60008D7F808310924F3880E00895E0E5F8E3AF
:100C700080818E7F808380914C3890914D38019790
:100C800079F10E941106EDE2F8E3878D90A10197BA
:100C9000878F90A3892B39F5ADE2B8E35D96ED918E
:100CA000FC915E978091180880835D968D919C9150
:100CB0005E9701965D968D939C935E97E0E5F8E3D1
:100CC000808188608083ED91FC9111971C968D91B5
:100CD0009C91099582508230A0F00E9429060895C7
:100CE0000E941F06D0CFA58DB68D809118088C93D9
:100CF000858D968D0196858F968F0E94DB0484E00A
:100D000008950E941F0688E0089583E008950E94D8
:100D10009B060C9483070E947C0758F00E9475077D
:100D200040F029F45F3F29F00C946C0751110C94AA
:100D3000B7070C9472070E94940768F39923B1F3E4
:100D4000552391F3951B550BBB27AA2762177307F1
:100D5000840738F09F5F5F4F220F331F441FAA1F85
:100D6000A9F335D00E2E3AF0E0E832D09150504041
:100D7000E695001CCAF72BD0FE2F29D0660F771FEF
:100D8000881FBB1F261737074807AB07B0E809F0D5
:100D9000BB0B802DBF01FF2793585F4F3AF09E3F5A
:100DA000510578F00C946C070C94B7075F3FE4F39F
:100DB000983ED4F3869577956795B795F7959F5F9D
:100DC000C9F7880F911D9695879597F90895E1E0E9
:100DD000660F771F881FBB1F621773078407BA0748
:100DE00020F0621B730B840BBA0BEE1F88F7E095A3
:100DF00008950E9400076894B1110C94B7070895F4
:100E00000E949C0788F09F5798F0B92F9927B751F7
:100E1000B0F0E1F0660F771F881F991F1AF0BA959E
:100E2000C9F714C0B13091F00E94B607B1E008953F
:100E30000C94B607672F782F8827B85F39F0B93F31
:100E4000CCF3869577956795B395D9F73EF4909551
:100E50008095709561957F4F8F4F9F4F0895E894CF
:100E600009C097FB3EF490958095709561957F4FF2
:100E70008F4F9F4F9923A9F0F92F96E9BB279395A0
:100E8000F695879577956795B795F111F8CFFAF4B0
:100E9000BB0F11F460FF1BC06F5F7F4F8F4F9F4FE1
:100EA00016C0882311F096E911C0772321F09EE83F
:100EB000872F762F05C0662371F096E8862F70E0A5
:100EC00060E02AF09A95660F771F881FDAF7880F7F
:100ED0009695879597F9089597F99F6780E870E050
:100EE00060E008959FEF80EC089500240A941616A0
:100EF000170618060906089500240A941216130608
:100F0000140605060895092E0394000C11F4882395
:100F100052F0BB0F40F4BF2B11F460FF04C06F5FB1
:100F20007F4F8F4F9F4F089557FD9058440F551F87
:100F300059F05F3F71F04795880F97FB991F61F05B
:100F40009F3F79F087950895121613061406551FD2
:100F5000F2CF4695F1DF08C0161617061806991F3E
:100F6000F1CF86957105610508940895E894BB2733
:0E0F700066277727CB0197F90895F894FFCFF5
:100F7E00022801910002300BAA40000008DEADBE2F
:070F8E00EFDEADBEEF000035
:100F950025002300CC03FE031104A0053606D60563
:100FA5000E041D040B0413051B061706290625064A
:080FB5009C041E05E7049004F2
:02000004008278
:090000000000020000C807000026
:00000001FF
