:100000000C943E000C945B000C94F9020C945B0081
:100010000C945B000C945B000C945B000C945B00F4
:100020000C945B000C945B000C945B000C945B00E4
:100030000C945B000C945B000C945B000C945B00D4
:100040000C945B000C945B000C945B000C945B00C4
:100050000C9493030C9467030C94E3030C94B70380
:100060000C945B000C945B000C945B000C945B00A4
:100070000C945B000C945B000C945B0011241FBE7D
:10008000CFEFCDBFDFE3DEBF18E3A0E0B8E3E9E0E8
:10009000F1E102C005900D92A832B107D9F728E32B
:1000A000A8E2B8E301C01D92AC3AB207E1F70E94A2
:1000B00062010C9480080C940000FC0164BF408332
:1000C0000895FC01E60FF71F20819181892F90E0B0
:1000D000982F8827820F911D08950895E9E5F8E388
:1000E00085E0DF011D928A95E9F725E030E0AF0158
:1000F0006CE48AE00E94BA0270E060E089E598E36F
:100100000E946100BC01990F880B990B0E94F407B3
:1001100020E030E040E251E40E9451076093513802
:1001200070935238809353389093543862E070E063
:1001300089E598E30E946100BC01990F880B990B37
:100140000E94F40720E030E040E251E40E945107B1
:1001500060938C3870938D3880938E3890938F385D
:100160000895FC01E60FF71F20819181892F90E00F
:10017000982F8827820F911D0895CF93DF93CDB7D5
:10018000DEB76497CDBFDEBF92E099831A8281E02B
:100190008B838EEE8C8385E08D8380E98E838AE36A
:1001A0008F8388EB888783E089871A868B872BE883
:1001B0002C878D871E8687E08F8787E9888B998BB0
:1001C0001A8A1B8A89EE8C8B44E050E0BE016F5F77
:1001D0007F4F8AE00E94970244E050E0BE016B5FCF
:1001E0007F4F8AE00E94970244E050E0BE01675FC3
:1001F0007F4F8AE00E94970244E050E0BE01635FB7
:100200007F4F8AE00E94970244E050E0BE016F5E9B
:100210007F4F8AE00E9497026496CDBFDEBFDF91D8
:10022000CF9108950F931F93CF93DF93E9E5F8E300
:1002300083E1DF011D928A95E9F723E130E0AF0108
:100240006CE48AE00E94BA0270E060E089E598E31D
:100250000E94B100BC01990F880B990B0E94F40712
:1002600020E030E040E251E40E94510760935538AD
:100270007093563880935738909358380CE618E3AB
:10028000C2E0D0E0BE0189E598E30E94B100BC0164
:10029000990F880B990B0E94F40720E030E040EAA8
:1002A00050E40E945107F8016193719381939193F7
:1002B0008F012296C231D10529F7DF91CF911F918D
:1002C0000F910895CF93DF93CDB7DEB7EC97CDBFF5
:1002D000DEBF0E943E0384E690E00E9479020E9405
:1002E000BD000E946D0080E00E94790480EC89834B
:1002F0000F2EF6E0CF2EF4E0DF2EF02D10E1F60108
:10030000108361E070E0CE0101960E9484040F2EFC
:10031000F5E0EF2EF4E0FF2EF02DF70110838AE0D8
:1003200090E00E94790285E0E4E0F1E9DE011296B6
:1003300001900D928A95E1F7F601108365E070E077
:10034000CE0102960E948404F701108382E08F831D
:100350008FE088871986F601108363E070E0CE0194
:1003600007960E948404F70110830F2EF1E82F2EC8
:10037000F02D6894552453F8CE01C09689AF9AAFFA
:100380000F2EFCE8CF2EF8E3DF2EF02DFE01B896FD
:10039000EBAFFCAF0F2EFCEAEF2EF8E3FF2EF02DB3
:1003A0006894442441F80F2EF1E33F2EF02D0F2ED8
:1003B000F6E0AF2EF4E0BF2EF02D0F2EF5E06F2EFD
:1003C000F4E07F2EF02D5DC0498E3A8E9AEA9B8F25
:1003D00080E48C8F1D8E1E8E5F8E28A928A329A9EC
:1003E00029A32AA92AA32BA92BA32CA92CA32DA985
:1003F0002DA32EA92EA32FA92FA34A863B869C8727
:100400008D871E861F86588A88A5898B89A58A8B29
:100410008AA58B8B8BA58C8B8CA58D8B8DA58E8BBC
:100420008EA58F8B8FA5888F10E1F50110836FE06B
:1004300070E0CE0149960E948404F3011083F50117
:10044000108361E070E0CE01C8960E948404F3013D
:100450001083F50110836FE070E0CE010A960E94D0
:100460008404F3011083F501108361E070E0CE0194
:10047000C8960E948404F301108384E690E00E94F1
:10048000790228AE0E9412010E946E00E9ADFAAD19
:10049000852D11928A95E9F70CE618E3FE01F09696
:1004A0004F01F80161917191819191918F010E94A9
:1004B000C307F40161934F010C151D0591F7EBADD6
:1004C000FCAD852D11928A95E9F70CE818E3FE0141
:1004D000B8964F01F80161917191819191918F01CD
:1004E0000E94C307F40161934F010E151F0591F798
:1004F0006BCF9C0121503109892B49F083EC99E0A5
:100500000197F1F700C0000021503109B8F70895B4
:10051000FC0160817181828193810E94040570E0F9
:1005200060E090E080E00E94EA0482E00895EF92AB
:10053000FF920F931F93CF93C82F8B017A018C2FBB
:100540000E9471058823D9F3B701C8010E940405F0
:1005500070E060E08FE497E00E94F0040E9466067D
:100560000E9427058130E1F3CF911F910F91FF90F9
:10057000EF9008951F93CF93DF93CDB7DEB7259704
:10058000CDBFDEBF182F6D834B835C8329833A83F5
:10059000812F0E9471058823D9F3BE016F5F7F4FC1
:1005A00088E892E00E94EA0461E070E0CE010596DE
:1005B0000E94040570E060E08FE497E00E94F00480
:1005C0000E9466060E9427058130E1F32596CDBF83
:1005D000DEBFDF91CF911F91089540E068ED80E884
:1005E00090E00E945D00E0E8F0E01186108680E077
:1005F00008951F920F920FB60F9211248F9381E0EE
:1006000080938A008F910F900FBE0F901F901895C6
:1006100040E068ED88E790E00E945D0040E068ED12
:100620008CE790E00E945D0040E068ED80E790E09C
:100630000E945D0041E068ED81E690E00E945D006F
:1006400040E868ED80E690E00E945D0040E068EDE3
:1006500082E690E00E945D0080E0089540E068ED51
:1006600080E590E00E945D0080E0089540E068ED44
:1006700080E091E00E945D0080E008950E941A04ED
:100680000E94ED020E9436030E9408030E942E037E
:100690000E945F040E94F6040E94A2030E9453037A
:1006A0000E94F2030895E0E0F6E0168A11821282B9
:1006B00013821482148611861286168281E0858345
:1006C000148A158A128A138A808380E008951F9203
:1006D0000F920FB60F9211242F933F934F935F9376
:1006E0006F937F938F939F93AF93BF93EF93FF93FA
:1006F000E0912838F0912938309709F0099582E087
:1007000080930B06FF91EF91BF91AF919F918F91D5
:100710007F916F915F914F913F912F910F900FBEFD
:100720000F901F9018951F920F920FB60F921124E1
:100730008F9381E080930B068F910F900FBE0F90E7
:100740001F901895E0E4F6E0168A118280E182831A
:1007500013821482148611861286168281E08583A4
:10076000148A158A128A138A808380E008951F9262
:100770000F920FB60F9211242F933F934F935F93D5
:100780006F937F938F939F93AF93BF93EF93FF9359
:10079000E0912A38F0912B38309709F0099582E0E2
:1007A00080934B06FF91EF91BF91AF919F918F91F5
:1007B0007F916F915F914F913F912F910F900FBE5D
:1007C0000F901F9018951F920F920FB60F92112441
:1007D0008F9381E080934B068F910F900FBE0F9007
:1007E0001F90189540E068ED80E191E00E945D0067
:1007F000E0E1F1E01282138280E00895E0E1F4E0AC
:10080000808188608193E83184E0F807C9F7E0E3EC
:10081000F4E0808188608193E83384E0F807C9F7C9
:10082000E0E5F4E0808188608193E83584E0F807B2
:10083000C9F70895CF93DF930E94FE03C0E0D4E090
:100840008AE18883A0E2B4E01C92E0E4F4E088E06E
:1008500080831C8284E014968C9314971482188AE7
:10086000198A1A8A1B8A8C8B8D8B1E8A8F8B5096C5
:100870001C92509751961C92519752961C925297E7
:1008800053961C92539754961C92549755961C92CB
:10089000559756961C92569757961C92808B118AA4
:1008A000128A138A148A158A168A178AE0E0F2E0FF
:1008B0001082118212821382DF91CF910895E0E2BB
:1008C000F8E083E280831182128210922C38138226
:1008D00080E0089520912C38211109C021E0209357
:1008E0002C38E0E2F8E08083918381E0089580E095
:1008F0000895E82FF0E0EE0FFF1FE050F84C8081E4
:1009000091810E946A0408956115710571F0DC01FE
:10091000680F791FE0E2F8E09D9194839381992319
:10092000ECF78481A617B707B9F70895E0E5F8E377
:1009300080818D7F808310924F3880E0089581E020
:10094000089585E008956115710581F090E0FC013E
:10095000EE0FFF1FE35DF74C60837183880F991FD3
:10096000FC01E75CF74C40835183089590E0FC0163
:10097000EE0FFF1FE35DF74C2FE934E02083318356
:10098000880F991FFC01E75CF74C108211820895D3
:10099000E0E5F8E380818160808380914938880FA9
:1009A00081608093170884E008950E94C804089528
:1009B0000E94C8040895E0E5F8E3808181608083A7
:1009C00080914938880F8093170883E008950E942A
:1009D000DB040895AB01BC0180E00E94A3040895EC
:1009E000AB01BC0182E00E94A3040895E0E1F8E0BD
:1009F000108212828DE2868381E0838315821782C2
:100A00001482108680E008959C019091503893FFE5
:100A10000BC0EDE2F8E3258F368F678F70A3E0E51A
:100A2000F8E3892F877F80830895E0E1F8E08381F0
:100A30008F7383830895E0E1F8E08581806C85837E
:100A400008958091150882FB882780F90895CF9337
:100A5000DF930E942105882341F0E0E5F8E38081DF
:100A60008D7F808382E080934F388091503881FF62
:100A700004C081E0DF91CF910895E0E5F8E38B7F3A
:100A80008083CDE2D8E38FEF8C8F0E941B050E94FC
:100A900015058AA1EFCF8091150883FB882780F97F
:100AA0000895E0E1F8E08481886084838581816035
:100AB000858308950E945105E0E5F8E380818D7FEC
:100AC000808382E080934F388EE008950E94510524
:100AD000E0E5F8E380818D7F808310924F388EE0CF
:100AE00008959091503892FF02C081E00895EDE2A0
:100AF000F8E3848FA0E5B8E3892F887F9EE091A377
:100B000024EF31E0228F338F846088608C938FE9EB
:100B100094E080839183148615868283938316865E
:100B2000178684839583108A118A86839783128A15
:100B3000138A81EA94E080879187148A158A0E943B
:100B400051050E941B0580E00895E0E1F8E08481F2
:100B5000826084830895E0E1F8E085818860858380
:100B600008950E94AB05ADE2B8E382E092968C93C3
:100B700092971296ED91FC9113971E968D919C91F0
:100B80000995823029F0833031F00E94660508957E
:100B90000E94C80408950E94DB040895E0E1F8E093
:100BA000858188231CF0858186FFFACF0895E0E1D6
:100BB000F8E084818360848308950E94D705E0E58E
:100BC000F8E380818D7F808310924F3880E0089514
:100BD000E0E5F8E380818E7F8083ADE2B8E382E0D8
:100BE00092968C9392971496ED91FC91159750964E
:100BF0008D919C910995823029F0833031F00E94CB
:100C0000DD0508950E94C80408950E94DB0408953C
:100C100080911508829581700895CF93DF930E948B
:100C20001B058091503880FD1EC00E944B05882313
:100C300019F080E180934E380E942105882319F035
:100C400081E180934E38CDE2D8E3E9A1F0E0EE0FE8
:100C5000FF1FEC5FF74C0190F081E02D099589A30F
:100C6000DF91CF9108950E9408068823F1F28FE06A
:100C700080934E38DACFCF93DF938091503881FF45
:100C800009C0C0E5D8E30E94CE050E940D06888108
:100C900081FDF9CFDF91CF9108959091503891FD6A
:100CA00013C0E0E5F8E392609083882349F081E087
:100CB00080934E380E940D060E943B0680E0089506
:100CC00082E080934E38F6CF81E0089580E00E9464
:100CD0004D0608950E9408068823B9F0ADE2B8E3F6
:100CE0001696ED91FC91179752968D919C910995CE
:100CF000823029F0833031F00E94DD0508950E9492
:100D0000C80408950E94DB040895E0E5F8E38081BB
:100D10008E7F8083EDE2F8E3A58DB68DCD0101963F
:100D2000858F968F8C9180931808878D90A101975D
:100D3000878F90A3892B11F485E0089583E00895AF
:100D40000E9408068823B9F0ADE2B8E31696ED914B
:100D5000FC91179752968D919C910995823029F0BC
:100D6000833031F00E94DD0508950E94C804089583
:100D70000E94DB040895E0E5F8E3808188608083C9
:100D8000ADE2B8E3ED91FC9111971C968D919C9189
:100D90000995833051F0843059F0823019F00E9467
:100DA000DD0508950E94C80408950E94DB0408959B
:100DB0000E946A060895E0E1F8E084818B7F8483D5
:100DC00008950E94DB0683E008950E94DB0684E01C
:100DD0000895E0E1F8E084818460848308950E94AE
:100DE000E90688E008950E94E9060E94D705E0E53B
:100DF000F8E380818D7F808310924F3880E00895E2
:100E0000E0E5F8E380818E7F808380914C3890917B
:100E10004D38019779F10E94DB06EDE2F8E3878D0A
:100E200090A10197878F90A3892B39F5ADE2B8E3A4
:100E30005D96ED91FC915E978091180880835D9698
:100E40008D919C915E9701965D968D939C935E9794
:100E5000E0E5F8E3808188608083ED91FC91119753
:100E60001C968D919C91099582508230A0F00E9431
:100E7000F30608950E94E906D0CFA58DB68D809126
:100E800018088C93858D968D0196858F968F0E947C
:100E9000A50584E008950E94E90688E0089583E0AE
:100EA00008950E9465070C9446080E943F0858F078
:100EB0000E94380840F029F45F3F29F00C942F0875
:100EC00051110C947A080C9435080E94570868F365
:100ED0009923B1F3552391F3951B550BBB27AA27F3
:100EE00062177307840738F09F5F5F4F220F331F2D
:100EF000441FAA1FA9F335D00E2E3AF0E0E832D0F5
:100F000091505040E695001CCAF72BD0FE2F29D0F7
:100F1000660F771F881FBB1F261737074807AB07C9
:100F2000B0E809F0BB0B802DBF01FF2793585F4F3E
:100F30003AF09E3F510578F00C942F080C947A08F3
:100F40005F3FE4F3983ED4F3869577956795B79520
:100F5000F7959F5FC9F7880F911D9695879597F92B
:100F60000895E1E0660F771F881FBB1F62177307A4
:100F70008407BA0720F0621B730B840BBA0BEE1FB9
:100F800088F7E09508950E945F0888F09F5798F0D1
:100F9000B92F9927B751B0F0E1F0660F771F881F7E
:100FA000991F1AF0BA95C9F714C0B13091F00E9498
:100FB0007908B1E008950C947908672F782F882775
:100FC000B85F39F0B93FCCF3869577956795B395BF
:100FD000D9F73EF490958095709561957F4F8F4F2E
:100FE0009F4F0895E89409C097FB3EF49095809533
:100FF000709561957F4F8F4F9F4F9923A9F0F92FDF
:1010000096E9BB279395F695879577956795B7955C
:10101000F111F8CFFAF4BB0F11F460FF1BC06F5F42
:101020007F4F8F4F9F4F16C0882311F096E911C054
:10103000772321F09EE8872F762F05C0662371F075
:1010400096E8862F70E060E02AF09A95660F771F89
:10105000881FDAF7880F9695879597F9089597F97D
:101060009F6780E870E060E008959FEF80EC08954E
:1010700000240A9416161706180609060895002477
:101080000A9412161306140605060895092E0394F1
:10109000000C11F4882352F0BB0F40F4BF2B11F465
:1010A00060FF04C06F5F7F4F8F4F9F4F089557FDC4
:1010B0009058440F551F59F05F3F71F04795880FC6
:1010C00097FB991F61F09F3F79F08795089512165D
:1010D00013061406551FF2CF4695F1DF08C0161609
:1010E00017061806991FF1CF8695710561050894BA
:1010F0000895E894BB2766277727CB0197F90895D1
:04110000F894FFCF91
:0511040002280191002A
:10110900250023009604C804DB046A060007A0062C
:10111900D804E704D504DD05E506E106F306EF0684
:081129006605E805B1055A0551
:02000004008278
:090000000000020000C807000026
:00000001FF
